:100000000C9434000C9451000C9451000C94510049
:100010000C9451000C9451000C9451000C9451001C
:100020000C9451000C9498070C9451000C945100BE
:100030000C9451000C9451000C9451000C945100FC
:100040000C9451000C9451000C94E5060C94510052
:100050000C9451000C9451000C9451000C945100DC
:100060000C9451000C94510011241FBECFEFD8E026
:10007000DEBFCDBF11E0A0E0B1E0ECECF0E102C0EA
:1000800005900D92AE38B107D9F711E0AEE8B1E0B6
:1000900001C01D92A13FB107E1F70E9453000C94EB
:1000A00064080C940000FF920F931F93CF93DF938B
:1000B0000E94BA0260E875E280E090E00E94CF07FB
:1000C00080E091E00E94C903549A5C98FF240E944A
:1000D0004406882309F46AC05C9AC0E0D0E0CE01EF
:1000E0000E943A066C2F0E9421082196C630D10545
:1000F000B1F70E948A060E94BC0781E00E9429088D
:100100008A3309F04FC080E00E942908F82E82E06F
:100110000E9429080E943308282F30E0890153E00B
:10012000000F111F5A95E1F7220F331F020F131F03
:1001300083E00E9429080E943308080F111DE8017E
:1001400093E0CC0FDD1F9A95E1F7000F111FC00F50
:10015000D11F84E00E9429080E943308C80FD11DD6
:10016000CF3FD10509F0F0F48C2F0E94B7028EE04A
:1001700091E00E94CE038F2D0E9428030E949903D4
:10018000AE0160E070E082E191E00E9453050E94C0
:10019000B402482F50E060E070E080E291E00E94FD
:1001A000530501C0FF240E9418085C9882E5F816E8
:1001B00019F082E7F81679F480E860E040E00E94E8
:1001C0004A025C9A0E94B402482F50E060E070E05E
:1001D0008EE291E068C089E4F81619F089E6F81615
:1001E00079F480E060E840E80E944A025C9A0E944C
:1001F000B402482F50E060E070E08BE391E053C020
:100200008FE4F81619F08FE6F81679F45C9A80E01E
:1002100060E040E00E944A020E94B402482F50E091
:1002200060E070E08DE491E03EC087E4F81619F0DC
:1002300087E6F81679F45C9A80E060E840E00E9476
:100240004A020E94B402482F50E060E070E08AE564
:1002500091E029C082E4F81619F082E6F81679F4E4
:100260005C9A80E060E040E80E944A020E94B4028A
:10027000482F50E060E070E089E691E014C080E52E
:10028000F81619F080E7F816A1F45C9A84E66BE39F
:100290004FE90E944A020E94B402482F50E060E0F9
:1002A00070E087E791E00E9453050E9418085C986F
:1002B000FF240E9462020BCF559A5D98089587FF34
:1002C0000BC05D9A0000000000000000000000006C
:1002D000000000005D980AC05D9A00000000000068
:1002E0005D980000000000000000000086FF0BC0C9
:1002F0005D9A000000000000000000000000000007
:1003000000005D980AC05D9A0000000000005D9842
:100310000000000000000000000085FF0BC05D9A97
:1003200000000000000000000000000000000000CD
:100330005D980AC05D9A0000000000005D98000012
:10034000000000000000000084FF0BC05D9A000068
:1003500000000000000000000000000000005D98A8
:100360000AC05D9A0000000000005D9800000000D7
:1003700000000000000083FF0BC05D9A0000000039
:100380000000000000000000000000005D980AC0AE
:100390005D9A0000000000005D9800000000000071
:1003A0000000000082FF0BC05D9A0000000000000A
:1003B000000000000000000000005D980AC05D9A87
:1003C0000000000000005D98000000000000000038
:1003D000000081FF0BC05D9A0000000000000000DB
:1003E00000000000000000005D980AC05D9A000057
:1003F000000000005D980000000000000000000008
:1004000080FF0BC05D9A00000000000000000000AB
:100410000000000000005D9808955D9A0000000053
:1004200000005D980000000000000000000008953A
:100430000F931F93182F862F042F0E945F01812F87
:100440000E945F01802F0E945F011F910F9108950C
:1004500080E090E0000001962CE980349207D1F70B
:100460000895FF920F931F93182F062FF42E862FB7
:100470000E945F01812F0E945F018F2D0E945F010A
:100480001093870100938801F09289011F910F91C9
:10049000FF90089590918D01981718F490938A0118
:1004A00002C080938A01961718F490938B0102C0C2
:1004B00060938B01941718F490938C0108954093E6
:1004C0008C010895FF920F931F93CF93DF9300E069
:1004D000FF24C8E2D3E290918A01809187018917B5
:1004E00010F48F5F03C0981720F481508093870128
:1004F00001C0016090918B0180918801891710F4EF
:100500008F5F03C0981720F481508093880101C049
:10051000026090918C0180918901891710F48F5F9E
:1005200003C0981720F481508093890101C00460B2
:1005300010E08091870160918801409189010E94BB
:1005400031021F5F1837A9F7CE010197F1F7073085
:1005500029F0F3948FEFF81609F0BDCFDF91CF911A
:100560001F910F91FF90089580918D0108958093C0
:100570008D010895559A5D98089510928E01EFE8C7
:10058000F1E0119281E0E739F807D9F71082118282
:1005900080E490E09093DA018093D9011092DC011D
:1005A0001092DB0120E004C0E257FE4F13862F5F5C
:1005B0008091D9019091DA01E22FF0E0E817F90774
:1005C00098F308951092E0011092DF011092E20179
:1005D0001092E1011092E3011092E40181E0809316
:1005E000E5010895089508959B01AC0160E673EE5E
:1005F00086E190E00E944208215030404040504047
:10060000E0ECF0E0808182608083BB27A52F942FEF
:10061000832F8093C5002093C4000895E1ECF0E09F
:1006200080818860808386E08093C2000895E1EC39
:10063000F0E080818061808386E08093C20008952D
:10064000E1ECF0E0808180688083789408950895DB
:10065000982F8091C00085FFFCCF9093C60008952D
:10066000DF93CF930F92CDB7DEB719828091C00090
:1006700084FF05C08091C600898381E008C0809115
:10068000C00083FF07C08091C600898382E0809309
:100690008E0105C08091C600898310928E018981E8
:1006A0000F90CF91DF9108951092DD011092DE013D
:1006B000089584E08093DE018BEF8093DE01109239
:1006C000B6001092B0001092B100E0E7F0E01082A6
:1006D0001092B2008FEF87BB81E0808378940895F9
:1006E00087E08093B10008951092B1000895809141
:1006F000DD0108958091B20090E008958091DE01BF
:100700008093B20008950895AC0120E030E070E0DD
:100710000CC0FA01E20FF31FE0818091C00085FF59
:10072000FCCFE093C6002F5F3F4F2617370788F3B3
:1007300008958091C00085FFFCCF8DE08093C600B6
:100740008091C00085FFFCCF8AE08093C6000895A9
:100750008091C00085FFFCCF80E28093C6000895A1
:100760008091C00085FFFCCF8CE28093C600089585
:10077000AC0120E007C08091C00085FFFCCFE09372
:10078000C6002F5FFA01E20FF11DE081EE2399F719
:1007900008950E94B8030E94990308950E94B80327
:1007A0008091C00085FFFCCF80E28093C600089551
:1007B0000E94B8038091C00085FFFCCF8CE280933B
:1007C000C6000895BF92CF92DF92EF92FF920F93EF
:1007D0001F936B017C01611571058105910531F451
:1007E00010928F0181E08093970123C0BB240B2DD1
:1007F00010E002571E4FC701B6012AE030E040E08A
:1008000050E00E944208F8016183C701B6012AE066
:1008100030E040E050E00E944208C901DA016C017A
:100820007D01B394C114D104E104F10401F7B09245
:1008300097011F910F91FF90EF90DF90CF90BF90A5
:100840000895E09197010FC02E2F2150E22FF0E084
:10085000E257FE4F91818091C00085FFFCCF905DF3
:100860009093C600E22FEE2379F708959B01AC0127
:1008700097FF0EC08091C00085FFFCCF8DE2809372
:10088000C60050954095309521953F4F4F4F5F4F93
:10089000CA01B9010E94E2030E94210408951F9336
:1008A000CF93DF93AB01BC014F3F5105610571054B
:1008B00009F028F4E8E0F0E0C2E0D0E011C04030F8
:1008C00080E0580781E0680780E0780728F0E0E2E0
:1008D000F0E0C8E0D0E004C0E0E1F0E0C4E0D0E047
:1008E0008091C00085FFFCCF80E38093C60080919B
:1008F000C00085FFFCCF88E78093C60010E01FC0D2
:100900003497DB01CA010E2E04C0B695A7959795C2
:1009100087950A94D2F790E08F7090708A30910595
:1009200020F09C01295C3F4F03C09C01205D3F4F9C
:100930008091C00085FFFCCF2093C6001F5F812FF0
:1009400090E08C179D07E0F2DF91CF911F91089501
:10095000CF92DF92EF92FF920F931F93CF93DF938B
:10096000AB01BC014F3F51056105710509F010F461
:1009700097E00BC0403080E0580781E0680780E0D6
:10098000780710F09FE101C09FE08091C00085FFD3
:10099000FCCF80E38093C6008091C00085FFFCCF30
:1009A00082E68093C60020E030E0E92FF0E000E32B
:1009B00011E3EF012196CF01821B930B6A017B01AA
:1009C00004C0F694E794D794C7948A95D2F7D701D8
:1009D000C60181709070892B39F08091C00085FF2D
:1009E000FCCF1093C60006C08091C00085FFFCCFED
:1009F0000093C6002F5F3F4F2C173D07E1F6DF91B4
:100A0000CF911F910F91FF90EF90DF90CF900895BD
:100A10000E9436040E94990308950E943604809132
:100A2000C00085FFFCCF80E28093C60008950E943D
:100A300036048091C00085FFFCCF8CE28093C60015
:100A400008950E944F040E94990308950E944F0444
:100A50008091C00085FFFCCF80E28093C60008959E
:100A60000E944F048091C00085FFFCCF8CE28093F0
:100A7000C60008950E94A8040E94990308950E9448
:100A8000A8048091C00085FFFCCF80E28093C6005F
:100A900008950E94A8048091C00085FFFCCF8CE2DD
:100AA0008093C6000895EF92FF920F931F937A01EF
:100AB0008B010E94B8038091C00085FFFCCF80E2CB
:100AC0008093C600C801B7010E9408051F910F91CD
:100AD000FF90EF900895EF92FF920F931F937A018A
:100AE0008B010E94B8038091C00085FFFCCF80E29B
:100AF0008093C600C801B7010E940D051F910F9198
:100B0000FF90EF900895EF92FF920F931F937A0159
:100B10008B010E94B8038091C00085FFFCCF80E26A
:100B20008093C600C801B7010E9417051F910F915D
:100B3000FF90EF900895EF92FF920F931F937A0129
:100B40008B010E94B8038091C00085FFFCCF80E23A
:100B50008093C600C801B7010E9421051F910F9123
:100B6000FF90EF900895EF92FF920F931F937A01F9
:100B70008B010E94B8038091C00085FFFCCF80E20A
:100B80008093C600C801B7010E9426051F910F91EE
:100B9000FF90EF900895EF92FF920F931F937A01C9
:100BA0008B010E94B8038091C00085FFFCCF80E2DA
:100BB0008093C600C801B7010E9430051F910F91B4
:100BC000FF90EF900895EF92FF920F931F937A0199
:100BD0008B010E94B8038091C00085FFFCCF80E2AA
:100BE0008093C600C801B7010E943A051F910F917A
:100BF000FF90EF900895EF92FF920F931F937A0169
:100C00008B010E94B8038091C00085FFFCCF80E279
:100C10008093C600C801B7010E943F051F910F9144
:100C2000FF90EF900895EF92FF920F931F937A0138
:100C30008B010E94B8038091C00085FFFCCF80E249
:100C40008093C600C801B7010E9449051F910F910A
:100C5000FF90EF90089580E090E0FC01E257FE4F96
:100C60001386019680349105C1F71092DC01109231
:100C7000DB010895FC01E257FE4F838508958091C2
:100C8000DB019091DC0108958091E4010895809149
:100C9000DB019091DC0108952091DF013091E001AA
:100CA000C90108952091E1013091E201C90108953F
:100CB0008091E30108958091E50108951092E40187
:100CC000089580E090E0FC01E257FE4F1386019604
:100CD00080349105C1F71092DC011092DB0181E0B4
:100CE0008093E5010895AC0120E030E00AC0F901ED
:100CF000E257FE4F8385FA01E20FF31F80832F5FD7
:100D00003F4F8091DB019091DC0190E0281739077B
:100D100070F3089520E030E00CC0F901E257FE4F77
:100D200093858091C00085FFFCCF9093C6002F5F14
:100D30003F4F8091DB019091DC0190E0281739074B
:100D400060F30E949903089580918E010895109296
:100D50008E0108950E9430038093980180918E0146
:100D6000882311F5E091DB01F091DC01809198017D
:100D7000E257FE4F83878091DB019091DC01019661
:100D80009093DC018093DB012091DB013091DC0149
:100D90008091D9019091DA012817390738F0109223
:100DA000DC011092DB0102C0109298018091DE01FB
:100DB0008093B2008091DD01882331F487E0809335
:100DC000B10081E08093DD0108951F920F920FB66C
:100DD0000F9211242F933F934F935F936F937F93C1
:100DE0008F939F93AF93BF93EF93FF930E94AA06B5
:100DF000FF91EF91BF91AF919F918F917F916F91F3
:100E00005F914F913F912F910F900FBE0F901F90C8
:100E10001895362F20E02827392740E061E270E15D
:100E2000C901880F991F37FF04C09C012627372767
:100E300001C09C014F5F483099F7C90108950F9395
:100E40001F93CF93DF93062FEC0120E030E010E0FA
:100E500006C0C90169910E9409079C011F5F101714
:100E6000C0F3C901DF91CF911F910F910895809137
:100E7000DB019091DC01823028F440E050E020E07A
:100E800030E01FC06091DB017091DC01625089E9A4
:100E900091E00E941F07AC01E091DB01F091DC01C1
:100EA000F0E0E457FE4F2385922F80E0E091DB01D4
:100EB000F091DC01F0E0E357FE4F238530E0282B72
:100EC000392B5093E0014093DF013093E2012093EE
:100ED000E1012091DF013091E0018091E1019091E9
:100EE000E2012817390721F481E08093E301089596
:100EF0001092E30108958091DD01813021F4109278
:100F0000B1001092DD018091DB019091DC0188231A
:100F100071F08091E501882319F480E180938E01BE
:100F20000E94370781E08093E4011092E501089563
:100F30001F920F920FB60F9211242F933F934F934E
:100F40005F936F937F938F939F93AF93BF93EF9331
:100F5000FF930E947B07FF91EF91BF91AF919F910B
:100F60008F917F916F915F914F913F912F910F9052
:100F70000FBE0F901F90189580E090E0FC01E257A3
:100F8000FE4F1386019680349105C1F71092DC0163
:100F90001092DB011092E4010E9461060895EF9225
:100FA000FF920F931F937B018C010E94BD02109250
:100FB000E0011092DF011092E2011092E101109223
:100FC000E3011092E40181E08093E5011092DD01DC
:100FD0001092DE01C801B7010E94F4028091C100A5
:100FE00088608093C10096E09093C2008091C10018
:100FF00080618093C1009093C2008091C10080689D
:101000008093C10078940E94590380E090E0FC0135
:10101000E257FE4F1386019680349105C1F7109276
:10102000DC011092DB011F910F91FF90EF9008956A
:10103000E6EEF1E0119281E0E03FF807D9F7108287
:1010400008956A3028F4E62FF0E0EA51FE4F8083DD
:1010500008958A3010F080E00895E82FF0E0EA511A
:10106000FE4F80810895893310F480E00895805305
:101070000895E6EEF1E0119281E0E03FF807D9F73C
:1010800010820895A1E21A2EAA1BBB1BFD010DC000
:10109000AA1FBB1FEE1FFF1FA217B307E407F50728
:1010A00020F0A21BB30BE40BF50B661F771F881F04
:1010B000991F1A9469F760957095809590959B019A
:0C10C000AC01BD01CF010895F894FFCFF2
:1010CC004465627567205374617274656400434DA6
:1010DC004400434D445F496E74656E7369747900C6
:1010EC004143545F496E74656E7369747900457839
:1010FC006563757465642052454400457865637575
:10110C007465642049434520426C756500457865DB
:10111C006375746564204F66660045786563757405
:10112C00656420477265656E004578656375746506
:10113C006420426C75650045786563757465642040
:0E114C00507572706C6500000000000000809D
:00000001FF
