:100000000C9434000C9451000C9451000C94510049
:100010000C9451000C9451000C9451000C9451001C
:100020000C9451000C94ED060C9451000C9451006A
:100030000C9451000C9451000C9451000C945100FC
:100040000C9451000C9451000C943A060C945100FD
:100050000C9451000C9451000C9451000C945100DC
:100060000C9451000C94510011241FBECFEFD8E026
:10007000DEBFCDBF11E0A0E0B1E0E2E2FFE002C0F0
:1000800005900D92A835B107D9F711E0A8E5B1E0C8
:1000900001C01D92A63BB107E1F70E9453000C94EA
:1000A0008F070C9400001F930E940F0260E875E216
:1000B00080E090E00E94240780E091E00E941E030F
:1000C000549A5C9810E00E949905882359F05C9A34
:1000D00080E090E00E948F05182F0E94DF050E94AB
:1000E00011075C98123511F0123749F480E860E08E
:1000F00040E00E94A7015C9A8EE091E033C0193481
:1001000011F0193649F480E060E840E80E94A70148
:100110005C9A8BE191E026C01F3411F01F3649F440
:100120005C9A80E060E040E00E94A7018DE291E0EF
:1001300019C0173411F0173649F45C9A80E060E872
:1001400040E00E94A7018AE391E00CC0123411F054
:10015000123661F45C9A80E060E040E80E94A701FA
:1001600089E491E00E941E035C9810E00E94BD01AA
:10017000AACF559A5D98089587FF0BC05D9A00003D
:1001800000000000000000000000000000005D987A
:100190000AC05D9A0000000000005D9800000000A9
:1001A00000000000000086FF0BC05D9A0000000008
:1001B0000000000000000000000000005D980AC080
:1001C0005D9A0000000000005D9800000000000043
:1001D0000000000085FF0BC05D9A000000000000D9
:1001E000000000000000000000005D980AC05D9A59
:1001F0000000000000005D9800000000000000000A
:10020000000084FF0BC05D9A0000000000000000A9
:1002100000000000000000005D980AC05D9A000028
:10022000000000005D9800000000000000000000D9
:1002300083FF0BC05D9A000000000000000000007A
:100240000000000000005D980AC05D9A00000000F8
:1002500000005D980000000000000000000082FF28
:100260000BC05D9A000000000000000000000000CC
:10027000000000005D980AC05D9A000000000000C8
:100280005D980000000000000000000081FF0BC02E
:100290005D9A000000000000000000000000000067
:1002A00000005D980AC05D9A0000000000005D98A3
:1002B0000000000000000000000080FF0BC05D9AFD
:1002C000000000000000000000000000000000002E
:1002D0005D9808955D9A0000000000005D980000A0
:1002E000000000000000000008950F931F93182FD6
:1002F000862F042F0E94BC00812F0E94BC00802FFB
:100300000E94BC001F910F91089580E090E00000D2
:1003100001962CE980349207D1F70895FF920F934C
:100320001F93182F062FF42E862F0E94BC00812FBA
:100330000E94BC008F2D0E94BC00109358010093B6
:100340005901F0925A011F910F91FF900895813841
:1003500008F080E880935B01613820F080E88093AA
:100360005C0102C060935C01413820F080E880931A
:100370005D01089540935D010895FF920F931F93CF
:10038000CF93DF9300E0FF24C8E2D3E290915B01BA
:1003900080915801891710F48F5F03C0981720F4DB
:1003A00081508093580101C0016090915C0180915F
:1003B0005901891710F48F5F03C0981720F48150FA
:1003C0008093590101C0026090915D0180915A01B2
:1003D000891710F48F5F03C0981720F48150809321
:1003E0005A0101C0046010E08091580160915901E8
:1003F00040915A010E948E011F5F1837A9F7CE0164
:100400000197F1F7073029F0F3948FEFF81609F010
:10041000BDCFDF91CF911F910F91FF900895559A15
:100420005D98089510925E01EFE5F1E0119281E090
:10043000E736F807D9F71082118280E490E09093B4
:10044000AA018093A9011092AC011092AB0120E0A7
:1004500004C0E25AFE4F13862F5F8091A90190914C
:10046000AA01E22FF0E0E817F90798F30895109237
:10047000B0011092AF011092B2011092B10110922E
:10048000B3011092B40181E08093B50108950895FD
:1004900008959B01AC0160E673EE86E190E00E9456
:1004A0006D072150304040405040E0ECF0E080814A
:1004B00082608083BB27A52F942F832F8093C50054
:1004C0002093C4000895E1ECF0E08081886080838F
:1004D00086E08093C2000895E1ECF0E080818061C5
:1004E000808386E08093C2000895E1ECF0E0808193
:1004F00080688083789408950895982F8091C00033
:1005000085FFFCCF9093C6000895DF93CF930F92A1
:10051000CDB7DEB719828091C00084FF05C08091FD
:10052000C600898381E008C08091C00083FF07C0B6
:100530008091C600898382E080935E0105C080912E
:10054000C600898310925E0189810F90CF91DF915F
:1005500008951092AD011092AE01089584E0809349
:10056000AE018BEF8093AE011092B6001092B000F6
:100570001092B100E0E7F0E010821092B2008FEF2D
:1005800087BB81E080837894089587E08093B100F1
:1005900008951092B10008958091AD010895809161
:1005A000B20090E008958091AE018093B20008956A
:1005B0000895AC0120E030E070E00CC0FA01E20FD9
:1005C000F31FE0818091C00085FFFCCFE093C6005F
:1005D0002F5F3F4F2617370788F308958091C0009B
:1005E00085FFFCCF8DE08093C6008091C00085FF21
:1005F000FCCF8AE08093C60008958091C00085FFFB
:10060000FCCF80E28093C60008958091C00085FFF2
:10061000FCCF8CE28093C6000895AC0120E007C0B7
:100620008091C00085FFFCCFE093C6002F5FFA01E8
:10063000E20FF11DE081EE2399F708950E940D036A
:100640000E94EE0208950E940D038091C00085FF74
:10065000FCCF80E28093C60008950E940D03809134
:10066000C00085FFFCCF8CE28093C6000895BF9246
:10067000CF92DF92EF92FF920F931F936B017C0159
:10068000611571058105910531F410925F0181E0DA
:100690008093670123C0BB240B2D10E0025A1E4F2C
:1006A000C701B6012AE030E040E050E00E946D074B
:1006B000F8016183C701B6012AE030E040E050E074
:1006C0000E946D07C901DA016C017D01B394C11468
:1006D000D104E104F10401F7B09267011F910F9179
:1006E000FF90EF90DF90CF90BF900895E091670169
:1006F0000FC02E2F2150E22FF0E0E25AFE4F9181E1
:100700008091C00085FFFCCF905D9093C600E22FE2
:10071000EE2379F708959B01AC0197FF0EC08091FD
:10072000C00085FFFCCF8DE28093C60050954095B8
:10073000309521953F4F4F4F5F4FCA01B9010E943D
:1007400037030E94760308951F93CF93DF93AB0185
:10075000BC014F3F51056105710509F028F4E8E03F
:10076000F0E0C2E0D0E011C0403080E0580781E006
:10077000680780E0780728F0E0E2F0E0C8E0D0E029
:1007800004C0E0E1F0E0C4E0D0E08091C00085FF6B
:10079000FCCF80E38093C6008091C00085FFFCCF32
:1007A00088E78093C60010E01FC03497DB01CA01C0
:1007B0000E2E04C0B695A795979587950A94D2F703
:1007C00090E08F7090708A30910520F09C01295C38
:1007D0003F4F03C09C01205D3F4F8091C00085FFCB
:1007E000FCCF2093C6001F5F812F90E08C179D07E0
:1007F000E0F2DF91CF911F910895CF92DF92EF92B7
:10080000FF920F931F93CF93DF93AB01BC014F3F38
:1008100051056105710509F010F497E00BC04030F7
:1008200080E0580781E0680780E0780710F09FE1DA
:1008300001C09FE08091C00085FFFCCF80E38093E2
:10084000C6008091C00085FFFCCF82E68093C60081
:1008500020E030E0E92FF0E000E311E3EF01219622
:10086000CF01821B930B6A017B0104C0F694E794CD
:10087000D794C7948A95D2F7D701C601817090703A
:10088000892B39F08091C00085FFFCCF1093C60002
:1008900006C08091C00085FFFCCF0093C6002F5F8B
:1008A0003F4F2C173D07E1F6DF91CF911F910F913C
:1008B000FF90EF90DF90CF9008950E948B030E94ED
:1008C000EE0208950E948B038091C00085FFFCCF4B
:1008D00080E28093C60008950E948B038091C0003F
:1008E00085FFFCCF8CE28093C60008950E94A4038C
:1008F0000E94EE0208950E94A4038091C00085FF2B
:10090000FCCF80E28093C60008950E94A4038091EA
:10091000C00085FFFCCF8CE28093C60008950E9442
:10092000FD030E94EE0208950E94FD038091C00025
:1009300085FFFCCF80E28093C60008950E94FD03EE
:100940008091C00085FFFCCF8CE28093C6000895A3
:10095000EF92FF920F931F937A018B010E940D0378
:100960008091C00085FFFCCF80E28093C600C80163
:10097000B7010E945D041F910F91FF90EF900895C1
:10098000EF92FF920F931F937A018B010E940D0348
:100990008091C00085FFFCCF80E28093C600C80133
:1009A000B7010E9462041F910F91FF90EF9008958C
:1009B000EF92FF920F931F937A018B010E940D0318
:1009C0008091C00085FFFCCF80E28093C600C80103
:1009D000B7010E946C041F910F91FF90EF90089552
:1009E000EF92FF920F931F937A018B010E940D03E8
:1009F0008091C00085FFFCCF80E28093C600C801D3
:100A0000B7010E9476041F910F91FF90EF90089517
:100A1000EF92FF920F931F937A018B010E940D03B7
:100A20008091C00085FFFCCF80E28093C600C801A2
:100A3000B7010E947B041F910F91FF90EF900895E2
:100A4000EF92FF920F931F937A018B010E940D0387
:100A50008091C00085FFFCCF80E28093C600C80172
:100A6000B7010E9485041F910F91FF90EF900895A8
:100A7000EF92FF920F931F937A018B010E940D0357
:100A80008091C00085FFFCCF80E28093C600C80142
:100A9000B7010E948F041F910F91FF90EF9008956E
:100AA000EF92FF920F931F937A018B010E940D0327
:100AB0008091C00085FFFCCF80E28093C600C80112
:100AC000B7010E9494041F910F91FF90EF90089539
:100AD000EF92FF920F931F937A018B010E940D03F7
:100AE0008091C00085FFFCCF80E28093C600C801E2
:100AF000B7010E949E041F910F91FF90EF900895FF
:100B000080E090E0FC01E25AFE4F138601968034AB
:100B10009105C1F71092AC011092AB010895FC0150
:100B2000E25AFE4F838508958091AB019091AC010C
:100B300008958091B40108958091AB019091AC012A
:100B400008952091AF013091B001C901089520911D
:100B5000B1013091B201C90108958091B3010895A6
:100B60008091B50108951092B401089580E090E05D
:100B7000FC01E25AFE4F1386019680349105C1F7BD
:100B80001092AC011092AB0181E08093B501089501
:100B9000AC0120E030E00AC0F901E25AFE4F838543
:100BA000FA01E20FF31F80832F5F3F4F8091AB016B
:100BB0009091AC0190E02817390770F3089520E078
:100BC00030E00CC0F901E25AFE4F93858091C000DD
:100BD00085FFFCCF9093C6002F5F3F4F8091AB0104
:100BE0009091AC0190E02817390760F30E94EE0263
:100BF000089580915E01089510925E0108950E940B
:100C000085028093680180915E01882311F5E0914F
:100C1000AB01F091AC0180916801E25AFE4F8387ED
:100C20008091AB019091AC0101969093AC018093BF
:100C3000AB012091AB013091AC018091A901909161
:100C4000AA012817390738F01092AC011092AB01B5
:100C500002C0109268018091AE018093B200809131
:100C6000AD01882331F487E08093B10081E0809367
:100C7000AD0108951F920F920FB60F9211242F937A
:100C80003F934F935F936F937F938F939F93AF9314
:100C9000BF93EF93FF930E94FF05FF91EF91BF91E8
:100CA000AF919F918F917F916F915F914F913F9104
:100CB0002F910F900FBE0F901F901895362F20E0A8
:100CC0002827392740E061E270E1C901880F991FA8
:100CD00037FF04C09C012627372701C09C014F5FC6
:100CE000483099F7C90108950F931F93CF93DF936D
:100CF000062FEC0120E030E010E006C0C901699148
:100D00000E945E069C011F5F1017C0F3C901DF91AE
:100D1000CF911F910F9108958091AB019091AC01FB
:100D2000823028F440E050E020E030E01FC06091C5
:100D3000AB017091AC01625089E691E00E947406AB
:100D4000AC01E091AB01F091AC01F0E0E45AFE4F50
:100D50002385922F80E0E091AB01F091AC01F0E0AF
:100D6000E35AFE4F238530E0282B392B5093B001F6
:100D70004093AF013093B2012093B1012091AF01B4
:100D80003091B0018091B1019091B20128173907DB
:100D900021F481E08093B30108951092B301089586
:100DA0008091AD01813021F41092B1001092AD011B
:100DB0008091AB019091AC01882371F08091B501D5
:100DC000882319F480E180935E010E948C0681E003
:100DD0008093B4011092B50108951F920F920FB63F
:100DE0000F9211242F933F934F935F936F937F93B1
:100DF0008F939F93AF93BF93EF93FF930E94D0067F
:100E0000FF91EF91BF91AF919F918F917F916F91E2
:100E10005F914F913F912F910F900FBE0F901F90B8
:100E2000189580E090E0FC01E25AFE4F138601968F
:100E300080349105C1F71092AC011092AB01109271
:100E4000B4010E94B6050895EF92FF920F931F938D
:100E50007B018C010E9412021092B0011092AF012E
:100E60001092B2011092B1011092B3011092B4012C
:100E700081E08093B5011092AD011092AE01C801DE
:100E8000B7010E9449028091C10088608093C1002F
:100E900096E09093C2008091C10080618093C10070
:100EA0009093C2008091C10080688093C1007894C3
:100EB0000E94AE0280E090E0FC01E25AFE4F1386F1
:100EC000019680349105C1F71092AC011092AB01EC
:100ED0001F910F91FF90EF900895A1E21A2EAA1B87
:100EE000BB1BFD010DC0AA1FBB1FEE1FFF1FA217DA
:100EF000B307E407F50720F0A21BB30BE40BF50BD7
:100F0000661F771F881F991F1A9469F7609570955F
:100F1000809590959B01AC01BD01CF010895F89497
:020F2000FFCF01
:100F22004465627567205374617274656400457824
:100F32006563757465642052454400457865637540
:100F42007465642049434520426C756500457865A7
:100F52006375746564204F666600457865637574D1
:100F6200656420477265656E0045786563757465D2
:080F72006420426C756500006B
:00000001FF
