:100000000C9434000C9451000C9451000C94510049
:100010000C9451000C9451000C9451000C9451001C
:100020000C9451000C9485070C9451000C945100D1
:100030000C9451000C9451000C9451000C945100FC
:100040000C9451000C9451000C94D2060C94510065
:100050000C9451000C9451000C9451000C945100DC
:100060000C9451000C94510011241FBECFEFD8E026
:10007000DEBFCDBF11E0A0E0B1E0E6EAF0E102C0F2
:1000800005900D92A837B107D9F711E0A8E7B1E0C4
:1000900001C01D92AB3DB107E1F70E9453000C94E3
:1000A00051080C940000DF92EF92FF920F931F9380
:1000B000CF93DF930E94A70260E875E280E090E0B2
:1000C0000E94BC0780E091E00E94B603549A5C98BD
:1000D0000E943106882309F4CDC05C9AC0E0D0E0CC
:1000E000CE010E9427066C2F0E940E082196C63072
:1000F000D105B1F70E9477060E94A90781E00E940E
:1001000016088A3381F580E00E941608D82E82E016
:100110000E942008282F30E0890153E0000F111FB2
:100120005A95E1F7220F331F020F131F83E00E943D
:100130002008080F111D780193E0EE0CFF1C9A9522
:10014000E1F7000F111FE00EF11E84E00E9420086D
:100150009701280F311DC9012F3F310509F018F40F
:100160000E94A40201C0DD240E9405085C9832E5CB
:10017000D31619F082E7D81679F480E860E040E001
:100180000E9437025C9A0E94A102482F50E060E072
:1001900070E08EE091E014C029E4D21619F039E63F
:1001A000D316A1F480E060E840E80E9437025C9A30
:1001B0000E94A102482F50E060E070E08BE191E0E6
:1001C0000E9440050E9405085C9860C08FE4D81624
:1001D00019F02FE6D21679F45C9A80E060E040E0F6
:1001E0000E9437020E94A102482F50E060E070E0B8
:1001F0008DE291E0E5CF37E4D31619F087E6D81603
:1002000079F45C9A80E060E840E00E9437020E9446
:10021000A102482F50E060E070E08AE391E0D0CF87
:1002200022E4D21619F032E6D31679F45C9A80E013
:1002300060E040E80E9437020E94A102482F50E08F
:1002400060E070E089E491E0BBCF80E5D81619F05A
:1002500020E7D21679F45C9A84E66BE34FE90E94BA
:1002600037020E94A102482F50E060E070E087E56D
:1002700091E0A6CF0E94A102482F50E060E070E01C
:1002800087E691E00E9440050E9405080E944F0207
:100290001FCF559A5D98089587FF0BC05D9A0000A7
:1002A00000000000000000000000000000005D9859
:1002B0000AC05D9A0000000000005D980000000088
:1002C00000000000000086FF0BC05D9A00000000E7
:1002D0000000000000000000000000005D980AC05F
:1002E0005D9A0000000000005D9800000000000022
:1002F0000000000085FF0BC05D9A000000000000B8
:10030000000000000000000000005D980AC05D9A37
:100310000000000000005D980000000000000000E8
:10032000000084FF0BC05D9A000000000000000088
:1003300000000000000000005D980AC05D9A000007
:10034000000000005D9800000000000000000000B8
:1003500083FF0BC05D9A0000000000000000000059
:100360000000000000005D980AC05D9A00000000D7
:1003700000005D980000000000000000000082FF07
:100380000BC05D9A000000000000000000000000AB
:10039000000000005D980AC05D9A000000000000A7
:1003A0005D980000000000000000000081FF0BC00D
:1003B0005D9A000000000000000000000000000046
:1003C00000005D980AC05D9A0000000000005D9882
:1003D0000000000000000000000080FF0BC05D9ADC
:1003E000000000000000000000000000000000000D
:1003F0005D9808955D9A0000000000005D9800007F
:10040000000000000000000008950F931F93182FB4
:10041000862F042F0E944C01812F0E944C01802FB7
:100420000E944C011F910F91089580E090E0000020
:1004300001962CE980349207D1F70895FF920F932B
:100440001F93182F062FF42E862F0E944C01812F08
:100450000E944C018F2D0E944C011093710100935A
:100460007201F09273011F910F91FF900895909186
:100470007701981718F49093740102C08093740167
:10048000961718F49093750102C060937501941744
:1004900018F4909376010895409376010895FF92A1
:1004A0000F931F93CF93DF9300E0FF24C8E2D3E2C2
:1004B0009091740180917101891710F48F5F03C0CE
:1004C000981720F481508093710101C001609091D0
:1004D000750180917201891710F48F5F03C098171E
:1004E00020F481508093720101C0026090917601E6
:1004F00080917301891710F48F5F03C0981720F45F
:1005000081508093730101C0046010E080917101FB
:1005100060917201409173010E941E021F5F1837A3
:10052000A9F7CE010197F1F7073029F0F3948FEF87
:10053000F81609F0BDCFDF91CF911F910F91FF9079
:100540000895809177010895809377010895559AD1
:100550005D98089510927801E9E7F1E0119281E049
:10056000E138F807D9F71082118280E490E0909387
:10057000C4018093C3011092C6011092C50120E00E
:1005800004C0E858FE4F13862F5F8091C3019091FD
:10059000C401E22FF0E0E817F90798F308951092EC
:1005A000CA011092C9011092CC011092CB01109295
:1005B000CD011092CE0181E08093CF01089508957E
:1005C00008959B01AC0160E673EE86E190E00E9425
:1005D0002F082150304040405040E0ECF0E0808156
:1005E00082608083BB27A52F942F832F8093C50023
:1005F0002093C4000895E1ECF0E08081886080835E
:1006000086E08093C2000895E1ECF0E08081806193
:10061000808386E08093C2000895E1ECF0E0808161
:1006200080688083789408950895982F8091C00001
:1006300085FFFCCF9093C6000895DF93CF930F9270
:10064000CDB7DEB719828091C00084FF05C08091CC
:10065000C600898381E008C08091C00083FF07C085
:100660008091C600898382E08093780105C08091E3
:10067000C60089831092780189810F90CF91DF9114
:1006800008951092C7011092C801089584E08093E4
:10069000C8018BEF8093C8011092B6001092B00091
:1006A0001092B100E0E7F0E010821092B2008FEFFC
:1006B00087BB81E080837894089587E08093B100C0
:1006C00008951092B10008958091C7010895809116
:1006D000B20090E008958091C8018093B20008951F
:1006E0000895AC0120E030E070E00CC0FA01E20FA8
:1006F000F31FE0818091C00085FFFCCFE093C6002E
:100700002F5F3F4F2617370788F308958091C00069
:1007100085FFFCCF8DE08093C6008091C00085FFEF
:10072000FCCF8AE08093C60008958091C00085FFC9
:10073000FCCF80E28093C60008958091C00085FFC1
:10074000FCCF8CE28093C6000895AC0120E007C086
:100750008091C00085FFFCCFE093C6002F5FFA01B7
:10076000E20FF11DE081EE2399F708950E94A503A1
:100770000E94860308950E94A5038091C00085FF12
:10078000FCCF80E28093C60008950E94A50380916B
:10079000C00085FFFCCF8CE28093C6000895BF9215
:1007A000CF92DF92EF92FF920F931F936B017C0128
:1007B000611571058105910531F41092790181E08F
:1007C0008093810123C0BB240B2D10E008581E4FDD
:1007D000C701B6012AE030E040E050E00E942F0857
:1007E000F8016183C701B6012AE030E040E050E043
:1007F0000E942F08C901DA016C017D01B394C11474
:10080000D104E104F10401F7B09281011F910F912D
:10081000FF90EF90DF90CF90BF900895E09181011D
:100820000FC02E2F2150E22FF0E0E858FE4F9181AB
:100830008091C00085FFFCCF905D9093C600E22FB1
:10084000EE2379F708959B01AC0197FF0EC08091CC
:10085000C00085FFFCCF8DE28093C6005095409587
:10086000309521953F4F4F4F5F4FCA01B9010E940C
:10087000CF030E940E0408951F93CF93DF93AB0123
:10088000BC014F3F51056105710509F028F4E8E00E
:10089000F0E0C2E0D0E011C0403080E0580781E0D5
:1008A000680780E0780728F0E0E2F0E0C8E0D0E0F8
:1008B00004C0E0E1F0E0C4E0D0E08091C00085FF3A
:1008C000FCCF80E38093C6008091C00085FFFCCF01
:1008D00088E78093C60010E01FC03497DB01CA018F
:1008E0000E2E04C0B695A795979587950A94D2F7D2
:1008F00090E08F7090708A30910520F09C01295C07
:100900003F4F03C09C01205D3F4F8091C00085FF99
:10091000FCCF2093C6001F5F812F90E08C179D07AE
:10092000E0F2DF91CF911F910895CF92DF92EF9285
:10093000FF920F931F93CF93DF93AB01BC014F3F07
:1009400051056105710509F010F497E00BC04030C6
:1009500080E0580781E0680780E0780710F09FE1A9
:1009600001C09FE08091C00085FFFCCF80E38093B1
:10097000C6008091C00085FFFCCF82E68093C60050
:1009800020E030E0E92FF0E000E311E3EF012196F1
:10099000CF01821B930B6A017B0104C0F694E7949C
:1009A000D794C7948A95D2F7D701C6018170907009
:1009B000892B39F08091C00085FFFCCF1093C600D1
:1009C00006C08091C00085FFFCCF0093C6002F5F5A
:1009D0003F4F2C173D07E1F6DF91CF911F910F910B
:1009E000FF90EF90DF90CF9008950E9423040E9423
:1009F000860308950E9423048091C00085FFFCCFE8
:100A000080E28093C60008950E9423048091C00074
:100A100085FFFCCF8CE28093C60008950E943C04C1
:100A20000E94860308950E943C048091C00085FFC7
:100A3000FCCF80E28093C60008950E943C04809120
:100A4000C00085FFFCCF8CE28093C60008950E9411
:100A500095040E94860308950E9495048091C00029
:100A600085FFFCCF80E28093C60008950E94950424
:100A70008091C00085FFFCCF8CE28093C600089572
:100A8000EF92FF920F931F937A018B010E94A503AF
:100A90008091C00085FFFCCF80E28093C600C80132
:100AA000B7010E94F5041F910F91FF90EF900895F8
:100AB000EF92FF920F931F937A018B010E94A5037F
:100AC0008091C00085FFFCCF80E28093C600C80102
:100AD000B7010E94FA041F910F91FF90EF900895C3
:100AE000EF92FF920F931F937A018B010E94A5034F
:100AF0008091C00085FFFCCF80E28093C600C801D2
:100B0000B7010E9404051F910F91FF90EF90089587
:100B1000EF92FF920F931F937A018B010E94A5031E
:100B20008091C00085FFFCCF80E28093C600C801A1
:100B3000B7010E940E051F910F91FF90EF9008954D
:100B4000EF92FF920F931F937A018B010E94A503EE
:100B50008091C00085FFFCCF80E28093C600C80171
:100B6000B7010E9413051F910F91FF90EF90089518
:100B7000EF92FF920F931F937A018B010E94A503BE
:100B80008091C00085FFFCCF80E28093C600C80141
:100B9000B7010E941D051F910F91FF90EF900895DE
:100BA000EF92FF920F931F937A018B010E94A5038E
:100BB0008091C00085FFFCCF80E28093C600C80111
:100BC000B7010E9427051F910F91FF90EF900895A4
:100BD000EF92FF920F931F937A018B010E94A5035E
:100BE0008091C00085FFFCCF80E28093C600C801E1
:100BF000B7010E942C051F910F91FF90EF9008956F
:100C0000EF92FF920F931F937A018B010E94A5032D
:100C10008091C00085FFFCCF80E28093C600C801B0
:100C2000B7010E9436051F910F91FF90EF90089534
:100C300080E090E0FC01E858FE4F13860196803476
:100C40009105C1F71092C6011092C5010895FC01EB
:100C5000E858FE4F838508958091C5019091C601A3
:100C600008958091CE0108958091C5019091C601AB
:100C700008952091C9013091CA01C90108952091B8
:100C8000CB013091CC01C90108958091CD01089527
:100C90008091CF0108951092CE01089580E090E0F8
:100CA000FC01E858FE4F1386019680349105C1F788
:100CB0001092C6011092C50181E08093CF01089582
:100CC000AC0120E030E00AC0F901E858FE4F83850E
:100CD000FA01E20FF31F80832F5F3F4F8091C50120
:100CE0009091C60190E02817390770F3089520E02D
:100CF00030E00CC0F901E858FE4F93858091C000A8
:100D000085FFFCCF9093C6002F5F3F4F8091C501B8
:100D10009091C60190E02817390760F30E9486037E
:100D200008958091780108951092780108950E94A5
:100D30001D038093820180917801882311F5E09151
:100D4000C501F091C60180918201E858FE4F83876A
:100D50008091C5019091C60101969093C601809340
:100D6000C5012091C5013091C6018091C3019091C8
:100D7000C4012817390738F01092C6011092C50136
:100D800002C0109282018091C8018093B2008091CC
:100D9000C701882331F487E08093B10081E080931C
:100DA000C70108951F920F920FB60F9211242F932F
:100DB0003F934F935F936F937F938F939F93AF93E3
:100DC000BF93EF93FF930E949706FF91EF91BF911E
:100DD000AF919F918F917F916F915F914F913F91D3
:100DE0002F910F900FBE0F901F901895362F20E077
:100DF0002827392740E061E270E1C901880F991F77
:100E000037FF04C09C012627372701C09C014F5F94
:100E1000483099F7C90108950F931F93CF93DF933B
:100E2000062FEC0120E030E010E006C0C901699116
:100E30000E94F6069C011F5F1017C0F3C901DF91E5
:100E4000CF911F910F9108958091C5019091C60196
:100E5000823028F440E050E020E030E01FC0609194
:100E6000C5017091C601625083E891E00E940C07B1
:100E7000AC01E091C501F091C601F0E0EA58FE4FE7
:100E80002385922F80E0E091C501F091C601F0E04A
:100E9000E958FE4F238530E0282B392B5093CA01A7
:100EA0004093C9013093CC012093CB012091C9011B
:100EB0003091CA018091CB019091CC01281739075C
:100EC00021F481E08093CD0108951092CD01089521
:100ED0008091C701813021F41092B1001092C701B6
:100EE0008091C5019091C601882371F08091CF0156
:100EF000882319F480E1809378010E94240781E01F
:100F00008093CE011092CF0108951F920F920FB6D9
:100F10000F9211242F933F934F935F936F937F937F
:100F20008F939F93AF93BF93EF93FF930E946807B4
:100F3000FF91EF91BF91AF919F918F917F916F91B1
:100F40005F914F913F912F910F900FBE0F901F9087
:100F5000189580E090E0FC01E858FE4F138601965A
:100F600080349105C1F71092C6011092C50110920C
:100F7000CE010E944E060895EF92FF920F931F93A9
:100F80007B018C010E94AA021092CA011092C90131
:100F90001092CC011092CB011092CD011092CE0193
:100FA00081E08093CF011092C7011092C801C8015F
:100FB000B7010E94E1028091C10088608093C10066
:100FC00096E09093C2008091C10080618093C1003F
:100FD0009093C2008091C10080688093C100789492
:100FE0000E94460380E090E0FC01E858FE4F138623
:100FF000019680349105C1F71092C6011092C50187
:101000001F910F91FF90EF900895E0EDF1E01192A4
:1010100081E0EA3DF807D9F7108208956A3028F494
:10102000E62FF0E0E053FE4F808308958A3010F001
:1010300080E00895E82FF0E0E053FE4F80810895AE
:10104000893310F480E0089580530895E0EDF1E0D5
:10105000119281E0EA3DF807D9F710820895A1E2E4
:101060001A2EAA1BBB1BFD010DC0AA1FBB1FEE1F22
:10107000FF1FA217B307E407F50720F0A21BB30B6D
:10108000E40BF50B661F771F881F991F1A9469F7E9
:1010900060957095809590959B01AC01BD01CF0145
:0610A0000895F894FFCF53
:1010A600446562756720537461727465640045789F
:1010B60065637574656420524544004578656375BB
:1010C6007465642049434520426C75650045786522
:1010D6006375746564204F6666004578656375744C
:1010E600656420477265656E00457865637574654D
:1010F6006420426C75650045786563757465642087
:10110600507572706C650057726F6E6720434D4460
:08111600000000000000008051
:00000001FF
